:060000000A128A11FC2F18
:100F6A00F00070088312031393008C1DBD2FBE2F4F
:100F7A00BA2F8C11080083160313871187120716DC
:100F8A008512051640309400203083120313940012
:100F9A0008000A128A11C0270A128A111A30F300AD
:100FAA005E30F2006E30F100F10BD92FF20BD92F1F
:100FBA00F30BD92F000083120313051AE52FE62F2E
:100FCA00EC2F00300A128A11B5270A128A118312ED
:100FDA000313051EF12FF22FD32F01300A128A11A3
:100FEA00B5270A128A11D32F0A128A1100288301FF
:060FFA000A128A11CE2F3D
:08400000FF3FFF3FFF3FFF3FC0
:02400E007A3FF7
:00000001FF
