:060000000A128A11FC2F18
:100F8200831203138C1DC62FC72FC12F8C11130878
:100F9200080083160313871587120716851640303B
:100FA2009400243083120313940008008316031361
:100FB20086018312031386010A128A11CA270A12B2
:100FC2008A110A128A11C1270A128A11F0007003CB
:100FD200031DEC2FED2FF02F8312031386177008D9
:100FE200031DF42FF52FE22F831203138613E22F32
:0E0FF2000A128A11002883010A128A11D72FD1
:08400000FF3FFF3FFF3FFF3FC0
:02400E007A3FF7
:00000001FF
