:100000000A128A11FC2F00308A000408840A820731
:10001000003465346E347434653472342034793489
:100020006F34753472342034643461347434613420
:100030003D34003452346534633465346934763485
:1000400065346434203464346134743461343D3450
:100050000034483465346C346C346F342034773475
:100060006F3472346C34643400344C34453444346A
:1000700020344F34463446340D3400344C34453447
:0C008000443420344F344E340D3400342E
:100E8A00831203138C1E4A2F4B2F452F1A08080072
:100E9A00F000831203130C1E532F542F4E2F700889
:100EAA0099000800831203130C0EF200720C013928
:100EBA00F300F4017308F0007408F1000800203010
:100ECA00831603139800903083120313980011308D
:100EDA008316031399000800F100832F7108840018
:100EEA000A128A1103200A128A110A128A114D273C
:100EFA000A128A110130FF007F08F1077108840085
:100F0A000A128A1103200A128A11003A031D8E2F2F
:100F1A008F2F732F0800831603130713871787125F
:100F2A000A128A1164270A128A1121300A128A11B6
:100F3A0071270A128A110D300A128A114D270A12D4
:100F4A008A1101300A128A1171270A128A110A12A9
:100F5A008A1157270A128A11700871040319B62FC9
:100F6A00B72FAC2F8312031387160D300A128A117A
:100F7A004D270A128A1112300A128A1171270A128F
:100F8A008A110A128A1145270A128A11F500750870
:100F9A000A128A114D270A128A110D300A128A1171
:100FAA004D270A128A1131307506031DDD2FDE2FF7
:100FBA00E82F83120313871636300A128A11712713
:100FCA000A128A11AC2F30307506031DED2FEE2F51
:100FDA00F82F8312031387122D300A128A117127F0
:100FEA000A128A11AC2FAC2F0A128A110028830127
:060FFA000A128A11902F7B
:08400000FF3FFF3FFF3FFF3FC0
:02400E00FA3F77
:00000001FF
